:060000000A128A11D82F3C
:100DDC00483465346C346C346F340034F000700873
:100DEC0083120313930083160313141CFE2EFF2E81
:100DFC00F92E08008316031387110716871240304B
:100E0C00940020308312031394000800F200831224
:100E1C0003138710720820380A128A11F4260A125A
:100E2C008A1171080A128A11F4260A128A11831285
:100E3C00031387140800831203138710A0300A12BF
:100E4C008A11F4260A128A11F4013A2F74087107D8
:100E5C00F30073088400831300080A128A11F42625
:100E6C000A128A110130F40772087402031C3F2F16
:100E7C00402F2C2F831203138714080083120313A3
:100E8C00071087140230F5000430F400BA30F30078
:100E9C00F30B4E2FF40B4E2FF50B4E2F00000A3098
:100EAC00F10000300A128A110C270A128A11F10182
:100EBC0001300A128A110C270A128A11F101F10A67
:100ECC0002300A128A110C270A128A110330F1001F
:100EDC0003300A128A110C270A128A11F10104300C
:100EEC000A128A110C270A128A114C30F1000530B3
:100EFC000A128A110C270A128A110630F1000630E8
:100F0C000A128A110C270A128A110800831603137D
:100F1C00071087100A128A1100270A128A110A1266
:100F2C008A1144270A128A11263084008312031373
:100F3C00200883138000840A21088000840A220878
:100F4C008000840A23088000840A24088000840A14
:100F5C00250880008312031307102630F10005309A
:100F6C00F2000A128A1121270A128A118312031322
:100F7C0007140930F600F60BC12FC42F831203138C
:100F8C0007100B30F8002630F7005D30F600F60B3A
:100F9C00CD2FF70BCD2FF80BCD2FD42FB02F0A124E
:100FAC008A1100280A128A11EE260A128A11A00050
:100FBC000A128A11EF260A128A11A1000A128A114A
:100FCC00F0260A128A11A2000A128A11F1260A12BC
:100FDC008A11A3000A128A11F2260A128A11A4009D
:100FEC000A128A11F3260A128A11A50083010A1229
:040FFC008A118C2F9B
:02400E003B3F36
:00000001FF
